:020000040800F2
:10000000102F002009020008793800083536000852
:1000100015380008F1060008F1460008000000004D
:10002000000000000000000000000000833A00080B
:1000300081150008000000006939000849400008E7
:1000400023020008230200082302000823020008FC
:1000500023020008230200082302000823020008EC
:1000600023020008230200082302000823020008DC
:1000700023020008230200082302000823020008CC
:1000800023020008230200082302000823020008BC
:1000900023020008230200082302000823020008AC
:1000A00000000000230200082302000823020008C9
:1000B000230200082302000823020008230200088C
:1000C000230200082302000823020008230200087C
:1000D0002302000889460008230200089946000808
:1000E000230200082302000823020008230200085C
:1000F0002302000800000000230200082302000879
:100100000000000000000000230200082302000895
:100110002302000823020008230200080000000058
:100120002302000800F002F800F05EF80AA090E850
:10013000000C82448344AAF10107DA4501D100F0A2
:1001400053F8AFF2090EBAE80F0013F0010F18BF11
:10015000FB1A43F001031847EC4700000C4800006D
:100160000A444FF0000C10F8013B13F0070408BFDD
:1001700010F8014B1D1108BF10F8015B641E05D07B
:1001800010F8016B641E01F8016BF9D113F0080F30
:100190001EBF10F8014BAD1C0C1B09D16D1E58BFC2
:1001A00001F801CBFAD505E014F8016B01F8016BF9
:1001B0006D1EF9D59142D6D370470000002300246C
:1001C00000250026103A28BF78C1FBD8520728BF67
:1001D00030C148BF0B6070471FB59DE8030000F0B9
:1001E000A9F91FBD10B510BD00F000FA1146FFF7C8
:1001F000F3FF04F057FB00F01EFA03B4FFF7F2FF21
:1002000003BC00F04FFA0000094880470948004746
:10021000FEE7FEE7FEE7FEE7FEE7FEE7FEE7FEE7B6
:10022000FEE7FEE704480549054A064B7047000013
:10023000DD4000082501000810290020102F0020B3
:10024000102B0020102B002070B5064600F056F948
:10025000056806F10B0020F00704B4429CBF0020A3
:1002600070BD2B466A68BAB11068A04210D304F181
:10027000080188423CBF5068586007D35168101984
:1002800041601168091B016058601460101D70BD49
:1002900013465268002AE7D12146284600F036F975
:1002A0000028DED170BD70B50446051F00F026F9A8
:1002B0000068002C14BF446870BD002C18BFAC420D
:1002C0003CBF20466468F8D301680A18AA4218BFE8
:1002D000456003D12A680546114401602868411928
:1002E000A1421CBF6C6070BD6168696021680844F0
:1002F000286070BD53EA020C00F069802DE9F04BD4
:100300004FF00006002B1FBFB3FA83F503FA05F484
:1003100024FA05F65E4012BF1643B2FA82F502FADD
:1003200005F4C5F120051EBF22FA05FC44EA0C04C1
:10033000203556EA044C4FEA144418BF641C4FF0B1
:1003400000084FF00009904271EB030C39D30029EB
:1003500019BFB1FA81F701FA07F6B0FA80F700FA8F
:1003600007F6C7F120071EBF20FA07FC46EA0C0675
:100370002037B6FBF4FCA7EB0507103F07F01F0B77
:10038000CBF120060CFA0BFB2CFA06F644BFB34661
:100390000026202FA4BF5E464FF0000B5BEA060C40
:1003A00008BF4FF0010B19EB0B09ABFB027C48EBCC
:1003B0000608C01B06FB02CC0BFB03CC71EB0C0147
:1003C000C1E70B46024641464846BDE8F08B13B5EF
:1003D0004FF000004FF00001AFF30080BDE81C407B
:1003E000704730B505460B462A4613F8014B12F804
:1003F000010B08B1A042F8D01CB1002802D06D1C3E
:10040000F1E7284630BD10B5431C02E010F8011B8F
:1004100071B18107FAD14FF0013202C88C1A8C43B6
:1004200014EAC211F9D0C01A0A0603D0C01E10BDCA
:10043000C01A10BD0A0401D0801E10BD0902FCD0F4
:10044000401E10BD10B5203AC0F00B80B1E8185026
:10045000203AA0E81850B1E81850A0E81850BFF4AE
:10046000F5AF5FEA027C24BFB1E81850A0E818504D
:1004700044BF18C918C0BDE810405FEA827C24BFA1
:1004800051F8043B40F8043B08BF7047D20728BF2F
:1004900031F8023B48BF11F8012B28BF20F8023B7E
:1004A00048BF00F8012B70474FF0000200B513461B
:1004B00094469646203922BFA0E80C50A0E80C5084
:1004C000B1F12001BFF4F7AF090728BFA0E80C5035
:1004D00048BF0CC05DF804EB890028BF40F8042B2E
:1004E00008BF704748BF20F8022B11F0804F18BF9B
:1004F00000F8012B704770477047704700487047FD
:10050000B8280020704770477047704738B50446D8
:100510000A4600206946AFF30080002808BF38BDB6
:1005200002460099204600F03FF8012038BD012026
:1005300000F054B8F8B5AFF30080054600200C4633
:10054000102000BF0646A819A0420DD932466946C0
:100550000020AFF30080070008BF00F03FF80098CC
:10056000A04218BF0546C419FFF7C8FF056007463B
:10057000F01D20F007004619284600F00AF8B442A2
:1005800008BFF8BDA21B31463868BDE8F84000F04E
:100590000BB800210160C0E90110704710207047BE
:1005A00000487047B0280020034640688C46002869
:1005B00018BF88423CBF03464068F8D31868184407
:1005C000884207D00CF1030020F00700001D411AFB
:1005D000521A0146081D0A60FFF765BE10B500F00B
:1005E00039F8BDE8104000F02FB870477546FFF7A6
:1005F000D7FFAE4605006946534620F00700854602
:1006000018B020B5FFF70EFEBDE820404FF0000601
:100610004FF000074FF000084FF0000B21F00701EA
:10062000AC46ACE8C009ACE8C009ACE8C009ACE82D
:10063000C0098D46704710B50446AFF300802046D0
:10064000BDE81040FFF7D9BD002801D000F02AB85E
:100650007047000010B5012805D0002103A000F06C
:1006600027F8012010BD09A1F8E7000053494752BF
:10067000544D454D3A204F7574206F662068656172
:1006800070206D656D6F7279000000003A2048653A
:100690006170206D656D6F727920636F7272757015
:1006A0007465640001491820ABBEFEE72600020015
:1006B00070B505460C460A2000E06D1C00F011F8EC
:1006C00035B128780028F8D102E0641C00F009F860
:1006D00014B120780028F8D1BDE870400A20AFF3AB
:1006E000008008B569468DF800000320ABBE08BD48
:1006F00000BFFEE72DE9F0439FB004460D461746C4
:100700009846DDE926697A480078002870D12622CB
:100710000EA82968FFF796FE2868C08CADF85E0029
:100720002868816A1891808DADF864002868C08DB2
:10073000ADF866002868006B1A90286800F1340153
:1007400009221BA8FFF77EFE286890F83D008DF86F
:100750007500286890F83E008DF876002868006CD7
:100760001E90342212A968460D97FFF76BFE0EA863
:100770000FC803F065FD26220EA82168FFF762FE70
:100780002068C08CADF85E002068816A1891808D69
:10079000ADF864002068C08DADF866002068006B7D
:1007A0001A90206800F1340109221BA8FFF74AFEC5
:1007B000206890F83D008DF87500206890F83E00A4
:1007C0008DF876002068006C1E90342212A96846CD
:1007D0000D97FFF737FE0EA80FC803F031FD01207B
:1007E000434908704349087001F024FC42490860FD
:1007F0003F480078012851D1284600F07FF80128B1
:100800004CD126220EA82168FFF71CFE2068C08C60
:10081000ADF85E002068816A1891808DADF86400A3
:100820002068C08DADF866002068006B1A902068C3
:1008300000F1340109221BA8FFF704FE206890F89C
:100840003D008DF87500206890F83E008DF8760028
:100850002068006C1E9005F10800342212A90D904A
:100860006846FFF7EFFD0EA80FC803F0E9FC41460C
:1008700005F10800FFF7B5FD50B1002030702846A3
:1008800000F07FFE01201B4908701FB0BDE8F08317
:10089000284600F076FE02201649087015480078B8
:1008A00001280FD101F0C6FB13490968401AB0F5C1
:1008B000FA7F07D93078401C307000200C4908704E
:1008C0000C4908700B48007802280ED101F0B2FBE9
:1008D00009490968401A484507D93078401C3070EA
:1008E000002003490870034908700020CDE700008C
:1008F00069270020782700207427002070B504465F
:100900000025E088002830DD1A48008850B901F041
:1009100091FB19490860012016490880E0881749B1
:10092000088025E001F086FB13490968401A012878
:100930000ED9E08811490988884201D1012517E0C4
:1009400001F078FB0C490860E0880C4908800FE052
:10095000E0880A49098888420AD001F06BFB064901
:100960000860E0880549088002E00020014908800D
:1009700068B270BD9827002094270020922700209D
:1009800030B59FB004460D462846FFF7B7FF012853
:100990007DD144A105F10800FFF723FDD8B326223D
:1009A0000EA82168FFF74EFD2068C08CADF85E00F0
:1009B0002068816A1891808DADF864002068C08D30
:1009C000ADF866002068006B1A90206800F13401D1
:1009D00009221BA8FFF736FD206890F83D008DF82E
:1009E0007500206890F83E008DF876002068006C55
:1009F0001E9005F10800342212A90D906846FFF7F9
:100A000021FD0EA80FC803F01BFC284600F0B9FD1D
:100A100001201FB030BDFFE726A105F10800FFF758
:100A2000E0FCA0B326220EA82168FFF70BFD20688A
:100A3000C08CADF85E002068816A1891808DADF899
:100A400064002068C08DADF866002068006B1A90C5
:100A5000206800F1340109221BA8FFF7F3FC20688D
:100A600090F83D008DF87500206890F83E008DF8F4
:100A700076002068006C1E9005F10800342212A94F
:100A80000D906846FFF7DEFC0EA80FC800E006E0F8
:100A900003F0D6FB284600F074FD0120B9E70020E2
:100AA000B7E70000444953434F4E4E454354454435
:100AB000000000004552524F5200000010B512498C
:100AC0001248FFF75DFF012805D10020104908708A
:100AD0000D4800F056FD0E48007898B90A490B48B9
:100AE00000F02EFC0446012C01D109490870601C5D
:100AF00010B900200749087000220221064801F0C1
:100B000093FA00BF10BD0000B013002020000020A9
:100B10004E2700204D2700200008024070B50646F1
:100B20000D4600241CA105F10800FFF75AFC08B18E
:100B3000601CC4B21AA105F10800FFF752FC08B10D
:100B4000601CC4B218A105F10800FFF74AFC08B107
:100B5000601CC4B215A105F10800FFF742FC08B102
:100B6000601CC4B215A105F10800FFF73AFC08B1FA
:100B7000601CC4B213A105F10800FFF732FC08B1F4
:100B8000601CC4B211A105F10800FFF72AFC08B1EE
:100B9000601CC4B260B270BD53554343455353000B
:100BA00043544C2B000000003E00000044495343D6
:100BB0004F4E4E4543544544000000004552524FAD
:100BC000520000004641494C0000000043434C4B9A
:100BD0003A00000070B5A0B004460E464A480078BE
:100BE00000283DD101F026FA4849086046480078BF
:100BF000401C4549087026220FA82168FFF722FCF7
:100C00002068C08CADF862002068816A1991808DDF
:100C1000ADF868002068C08DADF86A002068006BF0
:100C20001B90206800F1340109221CA8FFF70AFC80
:100C3000206890F83D008DF87900206890F83E001B
:100C40008DF87A002068006C1F9031A0342213A91F
:100C50000D906846FFF7F6FB0FA80FC803F0F0FAF7
:100C60002948007801280AD13146204603F0BEF910
:100C7000012804D124480078401C234908702248E8
:100C80000078022811D13146204600F0CDF9054602
:100C9000012D04D11C480078401C1B490870681CB9
:100CA00010B900201849087000BF174800780328C1
:100CB00011D13146204600F035F80546012D04D10A
:100CC00011480078401C10490870681C10B90020B9
:100CD0000D49087000BF0C480078042812D1314635
:100CE000204600F07BF80546012D05D1002006497D
:100CF0000870012020B070BD681C10B900200249A6
:100D0000087000BF0020F5E7802700207C27002026
:100D10005365747570204D6F64756C652053696DF3
:100D2000000000007CB504460D462348007800BB57
:100D30004FF4FA70214922A322A2CDE900102946DE
:100D40002046FFF7D7FC012807D100201B49087077
:100D500019480078401C18490870184800780A287B
:100D600006DD00201549087013490870401E7CBD3F
:100D70001FE04FF4FA70114911A315A2CDE900103C
:100D800029462046FFF7B6FC012806D100200B4972
:100D90000870094908700120E9E7084800780A2826
:100DA00006DD00200549087003490870401EDEE793
:100DB00000BF00BF0020DAE76B270020702700206B
:100DC0004F4B000041542B434D47463D310000003E
:100DD00041542B434E4D493D312C32007CB50446E5
:100DE0000D466948007805287ED2DFE800F003242C
:100DF000456689004FF4FA70644965A365A2CDE9A0
:100E0000001029462046FFF775FC012807D1002075
:100E10005E4908705C480078401C5B4908705B487C
:100E200000780A2806DD00205849087056490870E5
:100E3000401E7CBDA5E04FF4FA70544954A35FA254
:100E4000CDE9001029462046FFF754FC012807D1C0
:100E500000204E4908704C480078401C4A490870F0
:100E60004A4800780A2806DD0020484908704649AB
:100E70000870401EDDE784E042F21070434953A33E
:100E800054A2CDE9001029462046FFF733FC012883
:100E900007D100203D4908703B480078401C3A4982
:100EA00008703A4800780A2806DD002037490870A3
:100EB00035490870401EBCE763E042F210703349C8
:100EC00042A347A2CDE9001029462046FFF712FCB5
:100ED000012807D100202D4908702B480078401CBC
:100EE00029490870294800E02BE000780A2806DD2F
:100EF00000202649087024490870401E99E740E008
:100F00004FF4FA70214922A338A2CDE900102946F6
:100F10002046FFF7EFFB012807D100201B4908708E
:100F200019480078401C18490870184800780A28A9
:100F300006DD00201549087013490870401E78E747
:100F40001FE042F21070114920A32CA2CDE900103D
:100F500029462046FFF7CEFB012806D100200B4989
:100F6000087009490870012063E7084800780A28DA
:100F700006DD00200549087003490870401E58E747
:100F800000BF00BF002054E76A2700206F27002021
:100F90004F4B000041542B43495054494D454F5548
:100FA000543D33303030302C32303030302C34300F
:100FB0003030302C353030303000000041542B437D
:100FC00049504D4F44453D300000000053554343C8
:100FD0004553530041542B4E45544F50454E00004D
:100FE00041542B49504144445200000041542B438A
:100FF000495052584745543D302C310041542B4301
:1010000049504F50454E3D312C22544350222C2202
:101010003131332E3139302E3234302E3437222CC8
:10102000373537372C3000007CB504460D46A448D0
:10103000007808287ED2DFE800F00423436385A50A
:10104000C5E64FF4FA709F499FA3A0A2CDE9001016
:1010500029462046FFF74EFB012807D10020994979
:10106000087097480078401C9549087095480078AA
:101070000A2804DD002093490870401E7CBD11E160
:101080004FF4FA708F4990A391A2CDE90010294640
:101090002046FFF72FFB012807D10020894908705F
:1010A00087480078401C86490870864800780A28DE
:1010B00005DD072082490870002082490870F1E0B0
:1010C0004FF4FA707F4980A385A2CDE9001029462C
:1010D0002046FFF70FFB012807D10020794908704F
:1010E00077480078401C76490870764800780A28CE
:1010F00005DD072072490870002072490870D1E0B0
:101100004FF4FA706F4970A378A2CDE90010294618
:101110002046FFF7EFFA012807D10020694908703F
:1011200067480078401C66490870664800780A28BD
:1011300007DD00E088E00720614908700020614970
:101140000870AFE04FF4FA705E495FA36AA2CDE980
:10115000001029462046FFF7CDFA012807D10020CC
:101160005849087056480078401C55490870554841
:1011700000780A2805DD07205149087000205149F0
:1011800008708FE04FF4FA704E494FA35CA2CDE98E
:10119000001029462046FFF7ADFA012807D10020AC
:1011A0004849087046480078401C45490870454841
:1011B00000780A2805DD07204149087000204149D0
:1011C00008706FE042F210703E4950A352A2CDE980
:1011D000001029462046FFF78DFA012808D100208B
:1011E000384908704F49087035490870012045E7B3
:1011F000344800780A2805DD0720314908700020AE
:10120000304908704EE04FF4FA702E492EA346A2E2
:10121000CDE9001029462046FFF76CFA012807D1D6
:1012200000202849087026480078401C244908708E
:10123000244800780A2806DD00203A490870214930
:101240000870401E1AE72DE04FF4FA701D491EA3E6
:1012500038A2CDE9001029462046FFF74BFA0128B5
:1012600014D10020174908700120154908702D4835
:101270000078401C2B49087008460078032805DBDD
:10128000002008700E490870401EF7E60D480078EF
:101290000A2806DD0020234908700A490870401E0C
:1012A000ECE600BF00BF1F480078032806DB0020E3
:1012B0001C49087002490870401EDFE60020DDE688
:1012C0006C270020712700204F4B00004154000084
:1012D00041542B434950434C4F53453D310000008E
:1012E00041542B4350494E3F0000000041542B43D2
:1012F000494343494400000041542B4353510000EB
:1013000041542B43475245473F0000004347415457
:10131000543A20310000000041542B4347415454BB
:101320003F0000007227002041542B4346554E3D9C
:101330003400000041542B4346554E3D310000001F
:1013400070B505460E463C48007868B900F072FE5C
:101350003A4908603A480078401C394908703648D4
:101360000078401C3449087033480078012811D1B6
:101370003146284602F008FF0446012C04D12E48CD
:101380000078401C2C490870601C10B900202A49C4
:10139000087000BF28480078022811D1314628463D
:1013A000FFF742FE0446012C04D123480078401C7C
:1013B00021490870601C10B900201F49087000BF47
:1013C0001D480078032811D131462846FFF7AAFCB2
:1013D0000446012C04D118480078401C16490870B6
:1013E000601C10B900201449087000BF1248007832
:1013F000042813D131462846FFF7F0FC0446012C9F
:1014000006D100200C4908700D490870012070BDFC
:10141000601C10B900200849087000BF0848007817
:10142000022806DB00200449087005490870401EA8
:10143000EDE70020EBE70000802700207C2700205C
:101440006E2700201948006820301949096801F505
:10145000806188420AD91648006800F58060144906
:101460000860084600681149086012E00F480068EB
:1014700020300E490860084601680D48006800F5F4
:101480008060814205D10A48006800F58060084903
:101490000860074800680749884206D106480449A1
:1014A0000860084600680149086070471400002081
:1014B0001C00002000F40308009001082A4800687E
:1014C00020302A49096801F5806188420AD92748F5
:1014D000006800F5806025490860084600682249D8
:1014E000086012E02048006820301F490860084664
:1014F00001681E48006800F58060814205D11B48E4
:10150000006800F5806019490860184800681849AB
:10151000884206D1174815490860084600681249F4
:101520000860114800681449096888421BD80F48B0
:10153000006812490968884215D11048006800F512
:1015400080600E490860084600680B4908600B4837
:1015500000680749884206D10648084908600846DD
:10156000006805490860704710000020180000203E
:1015700000F4030800900108140000201C00002063
:1015800070470021C180017100BF04E0002300F119
:1015900008025354491C41F288329142F6DB7047ED
:1015A00010B51348007801280DD100F043FD114912
:1015B0000968401A40F6B831884204D900200C4925
:1015C0000870012010BD0A48007802280DD100F0F3
:1015D00031FD08490968401A40F6B831884204D9FB
:1015E0000020034908700120ECE70020EAE7000032
:1015F000080000200400002072B600BFFEE70000D3
:101600000021094A51610949096841F40071074AFA
:1016100011601146096841F008011160002120F0B5
:10162000FF0211607047000098280020043C02402F
:101630000146086870472DE9F04105460F46082429
:10164000A0464FEA8800FEF7FFFD0646002005E0B1
:10165000296846F820102D1D411CC8B2A042F7DBB6
:10166000002013E018228306190E08E056F82030F7
:10167000D3407B54A2F10803DAB24B1CD9B2042345
:1016800003EB80038B42F1DC411CC8B2A042E9DBD2
:101690003046FEF708FEBDE8F081000000202E492C
:1016A000096801F48071B1F5807F07D12B49496940
:1016B00041F00201294A516140F4807026490968CD
:1016C00001F40071B1F5007F07D12449496941F067
:1016D0000101224A516140F400701F49096801F478
:1016E0000061B1F5006F07D11C49496941F004015F
:1016F0001A4A516140F400601749096801F4005129
:10170000B1F5005F07D11549496941F01001134A4D
:10171000516140F400501049096801F48051B1F55D
:10172000805F07D10D49496941F020010B4A5161A1
:1017300040F480500849096801F48061B1F5806F78
:1017400007D10649496941F00801044A516140F452
:101750008060014908607047183C024098280020CA
:1017600070B5044600F066FC054609E0601C38B11F
:1017700024B100F05FFC401BA04201D9032070BDE2
:101780001E48006800F001000028EFD11B480068E7
:1017900000F00200022801D11849086017480068CB
:1017A00000F48070B0F5807F22D01448006800F407
:1017B0000060B0F5006F1BD01048006800F40050C6
:1017C000B0F5005F14D00D48006800F48050B0F50B
:1017D000805F0DD00948006800F48060B0F5806F2C
:1017E00006D00648006800F40070B0F5007F03D111
:1017F000FFF754FF0120C2E70020C0E7183C024079
:101800002DE9FF5F074688461546994600F0F8FA2D
:101810000826B2464FEA8A00FEF716FD044600206D
:1018200017E018F8001044F820108206110E09E0A5
:1018300018F8012054F8203042EA032244F820200E
:101840004A1CD1B2042202EB80028A42F0DC411C25
:10185000C8B2B042E5DB4FF0000B0AE054F82B2091
:101860003946022000F0A2FA3F1D0BF1010000F002
:10187000FF0BB345F2DB002001900295042003909A
:1018800000200090694601A800F03EFA4A46294629
:10189000022000F08BFA291D02200E9A00F086FA31
:1018A00000F07AFA2046FEF7FEFCBDE8FF9F2DE926
:1018B000FF5F054688461646994600F0A1FA0020CB
:1018C000019002950420039000200090694601A831
:1018D00000F01AFA0827BA464FEA8A00FEF7B4FC6D
:1018E0000446002017E018F8001044F82010820683
:1018F000110E09E018F8012054F8203042EA0322C2
:1019000044F820204A1CD1B2042202EB80028A4211
:10191000F0DC411CC8B2B842E5DB4FF0000B0AE036
:1019200054F82B202946022000F040FA2D1D0BF11F
:10193000010000F0FF0BBB45F2DB00200190029696
:1019400004200390694601A800F0DEF94A463146BA
:10195000022000F02BFA311D02200E9A00F026FA28
:1019600000F01AFA2046FEF79EFCBDE8FF9F7FB507
:1019700004460D46164600F043FA002001900294FA
:101980000420039000200090694601A800F0BCF9F3
:101990002A462146022000F009FA3246211D022083
:1019A00000F004FA00F0F8F97FBD000010B511480E
:1019B000FFF73EFEE0B10F48001DFFF739FEB8B15A
:1019C0000C48FFF735FE0C49086008460068800A9D
:1019D00080020A4908600748001DFFF729FE2030F1
:1019E0000749086008460068800A800205490860C7
:1019F00010BD000000F40308140000201C000020AB
:101A000010000020180000202DE9F041A0B005468C
:101A10000C4616461F46DDF89880387801284ED1CE
:101A20008448007800283BD126220FA82168FEF7C1
:101A300009FD2068C08CADF862002068816A1991A8
:101A4000808DADF868002068C08DADF86A00206810
:101A5000006B1B90206800F1340109221CA8FEF7DE
:101A6000F1FC206890F83D008DF87900206890F82E
:101A70003E008DF87A002068006C1F906EA0342222
:101A800013A90D906846FEF7DDFC0FA80FC802F001
:101A9000D7FB00F0CFFA6B49086001206549087058
:101AA0006448007801280AD100F0C4FA6549096841
:101AB000401AB0F5FA7F02D900205E49087020462E
:101AC000FEF71CFF01287DD15FA104F10800FEF79D
:101AD00088FC002876D026220FA82968FEF7B2FCE1
:101AE0002868C08CADF862002868816A1991808DE1
:101AF000ADF868002868C08DADF86A002868006BF2
:101B00001B90286800F1340109221CA8FEF79AFCFA
:101B1000286890F83D008DF87900286890F83E001C
:101B20008DF87A002868006C1F9004F108003422B8
:101B300013A90D906846FEF785FC0FA80FC802F0A8
:101B40007FFB002065E004F10801095C22295ED1D9
:101B500004F1080100F11502895C222957D104F132
:101B60000801121F8B5C521E895C303901EB810128
:101B700003EB41013039B17104F10801921E8B5C15
:101B8000521E895C303901EB810103EB4101303990
:101B9000717104F10801921E8B5C521E895C303910
:101BA00001EB810103EB41013039317104F108018E
:101BB000921E8B5CC21D895C303901EB810103EB05
:101BC000410100E032E03039F17004F10801421DBA
:101BD0008B5C021D895C303901EB810103EB410113
:101BE0003039B17004F10801821C8B5C421C895CA5
:101BF000303901EB810103EB410130397170012172
:101C000088F8001000210B4A1170397004E0411C63
:101C100088B2E188814296DC00BF21462846FEF763
:101C20007DFF012802D12046FFF7ABFC20B0BDE8C4
:101C3000F08100008127002041542B43434C4B3F4F
:101C4000000000008427002043434C4B3A00000072
:101C50000146002291F82100022808D00420886360
:101C600000BF002081F8200000BF012070470868F5
:101C7000006820F00E000B6818600868006820F00B
:101C800001000B68186091F8400000F01C0301206F
:101C90009840CB6B5860012081F8210000BF0020E4
:101CA00081F8200000BF1046E0E770B5044600252B
:101CB00094F82100022803D00420A063012520E02D
:101CC0002068006820F00E00216808602068006825
:101CD00020F001002168086094F8400000F01C0129
:101CE00001208840E16B4860012084F8210000BF9A
:101CF000002084F8200000BF606B10B12046616BAB
:101D00008847284670BD00002DE9F04104460E4684
:101D10000127002500BF1E48007C012802D10220B7
:101D2000BDE8F08101201A49087400BF4CF2503020
:101D3000FFF716FD07461FBB4FF0FF3030606568A8
:101D400017E02846FFF75CFC4CF25030FFF708FD27
:101D500007461048006820F008000E490860084651
:101D6000006820F4007008600FB1356007E005F5E9
:101D70008075D4E9011001EB0020A842E1D800BF32
:101D800000BF00200249087400BF3846C8E70000C1
:101D900098280020043C02400348006840F00200FC
:101DA0000149086000207047043C02402DE9F041E1
:101DB00007460C461546012600BF1048007C012846
:101DC00002D10220BDE8F08101200C49087400BF57
:101DD0004CF25030FFF7C4FC064646B900200749D4
:101DE000486125604CF25030FFF7BAFC064600BF50
:101DF00000200249087400BF3046E3E7982800201D
:101E00001348006800F0020002281FD11048006843
:101E100000F0010060B10F480D49083108600E481C
:101E200008600B48006800F0010008B1012070470D
:101E30000A4807490C3108600948086004480068EE
:101E400000F00200022801D10120F0E70020EEE7B7
:101E5000043C0240EFCDAB8905040302BFAE9D8C6C
:101E60001615141378B503460A46002100240020F5
:101E7000C3E001268E40156805EA0604002C72D0E6
:101E8000157905F00305012D04D0157905F003053A
:101E9000022D13D198684E000325B540A8434E008B
:101EA000D568B54028439860586801258D40A843FF
:101EB0001579C5F300158D4028435860157905F054
:101EC0000305032D09D0D8684E000325B540A8436B
:101ED0004E009568B5402843D860157905F0030594
:101EE000022D13D1CE0803F1200555F826004D0729
:101EF000EE0E0F25B540A8434E07F60E1569B54006
:101F00002843CE0803F1200545F8260018684E0046
:101F10000325B540A843157905F003054E00B540EB
:101F200028431860556805F44035002D64D000BF83
:101F3000354D2D6845F00105334E356035462D6829
:101F400005F00105009500BF00BF304D8E0855F823
:101F500026008D072E0F0F25B540A8432C4DAB4210
:101F600002D1002515E047E02A4DAB4201D1012501
:101F70000FE0294DAB4201D102250AE0274DAB42CB
:101F800001D1032505E0264DAB4201D1042500E037
:101F900005258E07360FB54028431C4D8E0845F8A1
:101FA0002600204D2868A043556805F4803505B10A
:101FB00020431C4D28602D1D2868A043556805F45A
:101FC000003505B12043174D2D1D28602D1D2868B3
:101FD000A043556805F4801505B12043114D08351F
:101FE00028602D1D2868A043556805F4001505B12B
:101FF00020430C4D0C352860491C1568CD40002D40
:102000007FF437AF78BD000020380240080001405F
:10201000000002400004024000080240000C0240A0
:1020200000100240000401400AB1816101E00B048C
:1020300083617047014800687047000058270020FE
:10204000034800680349096808440149086070476B
:10205000582700206027002010B50024032000F03E
:10206000B3F80F2000F008F808B1012401E000F0F7
:102070002FF8204610BD000070B504460025114819
:102080000068D8B10F4800684FF47A71B1FBF0F0E6
:102090000D490968B1FBF0F6304600F0E8FF58B989
:1020A000102C07D200222146501E00F04FF807489E
:1020B000046004E0012502E0012500E00125284636
:1020C00070BD000060270020642700205C270020EE
:1020D00008B500BF1448006840F00040124908608D
:1020E0000846006800F00040009000BF00BF00BF3D
:1020F000081F006840F00100091F086008460068DA
:1021000000F00100009000BF00BF00BF081D006884
:1021100040F08050091D08600846006800F08050BB
:10212000009000BF00BF08BD2438024001460846A9
:10213000002809DB00F01F0301229A4043099B009D
:1021400003F1E023C3F8002100BF70472DE9F05FE1
:1021500080460D461646002702F088FB07463946A2
:102160002A46334601F00700C0F1070ABAF1040F0E
:1021700002D94FF0040A01E0C0F1070AD14600F18C
:10218000040ABAF1070F02D24FF0000A01E0A0F1F1
:10219000030AD4464FF0010A0AFA09FAAAF1010A21
:1021A0000AEA020A0AFA0CFA4FF0010B0BFA0CFBCE
:1021B000ABF1010B0BEA030B4AEA0B042146404644
:1021C00002F05CFBBDE8F09F00BF00F00702064B89
:1021D00019684FF6FF031940044B0B4343EA0221F1
:1021E000014B196000BF70470CED00E00000FA05DC
:1021F000F8B50446207800F00100002874D020785B
:1022000000F0010000B100BF00275748006800F04F
:10221000805070B900BF5448006840F08050524967
:1022200008600846006800F08050009000BF00BFC2
:1022300001274E48006800F48070B0B94B48006830
:1022400040F4807049490860FFF7F4FE064606E056
:10225000FFF7F0FE801B642801D90320F8BD434836
:10226000006800F480700028F2D03F4824380068ED
:1022700000F0C045606800F0C040A8420FD0606820
:1022800000F44030B0F5403F09D1374824380068A9
:1022900000F40030B0F5003F01D10120DEE7324804
:1022A0001030006800F440357DB3606800F44030C1
:1022B000A8422AD0207800F0010030B32A4810301C
:1022C000006820F44035012029490860002008609A
:1022D00025481030056005F48070B0F5807F14D17A
:1022E000FFF7A8FE064609E03CE0FFF7A3FE801BCF
:1022F00041F28831884201D90320AFE71A481030F3
:10230000006800F400700028EFD0207800F0010091
:10231000F8B100BF00BF606800F44030B0F5403F46
:102320000BD111482438006820F0C040616801F0EA
:10233000C04108430C492439086000BF0A481030E6
:102340000068616801F440310843074910310860B2
:1023500000BF012F05D10448006820F080500249D9
:10236000086000BF002079E7243802400070004078
:10237000DC0647422DE9F04104460D4614B9012020
:10238000BDE8F0817E48006800F00100A84218D244
:1023900000BF012D05D17A48006840F0040078495B
:1023A00008607748006820F00100284374490860FD
:1023B00000BF0846006800F00100A84201D00120DB
:1023C000DEE7207800F00200022807D16D4800689F
:1023D00020F0F000A16808436A490860207800F006
:1023E000010000287FD06068022807D165480838BE
:1023F000006800F40030F8B90120C1E760680328E4
:1024000007D160480838006800F00070A0B90120CA
:10241000B6E76068012807D15A480838006800F01C
:10242000020048B90120ABE756480838006800F4BC
:10243000007008B90120A3E75248006820F00300AB
:10244000616808434F490860FFF7F4FD064660687D
:10245000022810D108E0FFF7EDFD801B41F2883122
:10246000884201D903208BE74648006800F00C0041
:102470000828F0D137E06068032810D108E0FFF7A2
:10248000D9FD801B41F28831884201D9032077E7CA
:102490003C48006800F00C000C28F0D123E0606894
:1024A000012810D108E0FFF7C5FD801B41F28831FB
:1024B000884201D9032063E73248006800F00C002D
:1024C0000428F0D10FE008E0FFF7B4FD801B41F2D3
:1024D0008831884201D9032052E72A48006800F079
:1024E0000C000028F0D12648006800F00100A84246
:1024F00018D900BF012D05D12148006840F0040023
:102500001F4908601E48006820F0010028431C494C
:10251000086000BF0846006800F00100A84201D032
:1025200001202DE7207800F00400042807D1154889
:10253000006820F4E060E1680843124908602078F0
:1025400000F00800082808D10E48006820F4605008
:10255000216940EAC1000B49086000F041F80949CF
:102560000968C1F30311084A515CC8400749086073
:1025700007480068FFF780FD0746384600E700007F
:10258000003C024008380240294900086427002026
:102590005C27002001480068704700006427002085
:1025A00000B5FFF7F7FF04490968C1F30221034AA8
:1025B000515CC84000BD000008380240394900089D
:1025C00000B5FFF7E7FF04490968C1F3C221034AD8
:1025D000515CC84000BD000008380240394900087D
:1025E0002DE9F05F2248D0F8009009F00C0070B39C
:1025F000042804D0082804D00C2829D103E01D4D5C
:1026000032E01D4D30E01D48C9F3834110F801A0B0
:10261000C9F38150441C1648006800F4803050B162
:102620001548A0FB0A700146224600233846FDF7F4
:1026300061FE064609E00F48A0FB0A7001462246EB
:1026400000233846FDF756FE064635460CE000E00E
:1026500000BF0748001F0068C0F3423B0BF10100B8
:1026600001218140CD0300BF00BF2846BDE8F09F97
:10267000083802400024F40000366E0120490008AA
:102680002DE9F843044614B90120BDE8F883FE485B
:10269000006800F00C06FC48006800F480372078E1
:1026A00000F00100002875D0082E04D00C2E0ED1A9
:1026B000B7F5803F0BD1F4480838006800F40030CB
:1026C000002867D06068002864D10120DDE700BFE2
:1026D0006068012808D1EC480838006840F4803070
:1026E000E949083908602DE0606868B9E6480838AB
:1026F000006820F48030E449083908600846006822
:1027000020F4802008601DE0606805280DD1DE48B7
:102710000838006840F48020DB4908390860084622
:10272000006840F4803008600CE0D7480838006842
:1027300020F48030D449083908600846006820F445
:102740008020086000BF606890B1FFF773FC054609
:1027500006E0FFF76FFC401B642801D9032094E7D3
:10276000C9480838006800F400300028F1D011E0B2
:10277000FFF760FC054606E0FFF75CFC401B6428A1
:1027800001D9032081E7C0480838006800F4003010
:102790000028F1D1207800F00200022853D1042E45
:1027A00002D00C2E17D1B7B9B7480838006800F02E
:1027B000020020B1E068012801D0012065E7B2489D
:1027C000001F006820F4F850216940EA0120AE495A
:1027D000091F086037E0E06800B30120AB490860DA
:1027E000FFF728FC054606E0FFF724FC401B022803
:1027F00001D9032049E7A4480838006800F0020026
:102800000028F1D0A048001F006820F4F85021698A
:1028100040EA01209C49091F086014E000209B4900
:102820000860FFF707FC054606E0FFF703FC401BC6
:10283000022801D9032028E793480838006800F0EF
:1028400002000028F1D1207800F01000102871D18A
:10285000F6BB8D480838006800F4007018B1A06914
:1028600008B9012011E78849091F206A096801F4A5
:102870006041884219D9206A01F078F808B1012036
:1028800003E78148001F006820F46040216A084384
:102890007D49091F0860217F7B48001F006861F3A4
:1028A0001F607949091F08601AE07748001F006817
:1028B00020F46040216A08437349091F0860217FA2
:1028C0007148001F006861F31F606F49091F00E035
:1028D00020E00860206A01F049F808B10120D4E640
:1028E0000121206A01EB503101208840C003664974
:1028F0000968C1F30311664A515CC8406549086024
:1029000065480068FFF7B8FB8046B8F1000F42D079
:102910004046BAE6A06948B301205C490862FFF767
:1029200089FB054607E0FFF785FB401B022802D91B
:102930000320AAE62FE054480838006800F400702D
:102940000028F0D05048001F006820F46040216A41
:1029500008434D49091F0860217F4B48001F00684C
:1029600061F31F604849091F086014E000204749CF
:102970000862FFF75FFB054606E0FFF75BFB401BC5
:10298000022801D9032080E63F480838006800F497
:1029900000700028F1D1207800F0080008282CD120
:1029A0006069A8B101203D490860FFF743FB054677
:1029B00006E0FFF73FFB401B022801D9032064E635
:1029C00031482C30006800F002000028F1D014E0FB
:1029D000002032490860FFF72DFB054606E0FFF7AF
:1029E00029FB401B022801D903204EE626482C3043
:1029F000006800F002000028F1D1207800F0040007
:102A000004286ED14FF000091F481C30006800F008
:102A1000805088B900BF1C481C30006840F08050CE
:102A200019491C3108600846006800F08050009089
:102A300000BF00BF4FF001091948006800F4807022
:102A4000B0B91748006840F4807015490860FFF776
:102A5000F1FA054606E0FFF7EDFA401B642801D9BC
:102A6000032012E60E48006800F480700028F2D0BF
:102A700000BFA068012817D103482C30006840F43B
:102A8000807001492C310DE00838024000004742B7
:102A900029490008642700205C270020800647425F
:102AA00000700040086028E0A06858B966480068D7
:102AB00020F48070644908600846006820F4806053
:102AC00008601AE0A06805280CD15F48006840F44F
:102AD00080605D4908600846006840F480700860C6
:102AE0000BE040E05848006820F4807056490860C8
:102AF0000846006820F48060086000BFA06898B1B4
:102B0000FFF798FA054608E0FFF794FA401B41F2F8
:102B10008831884201D90320B7E54B48006800F4AA
:102B200000700028F0D012E0FFF784FA054608E0B4
:102B3000FFF780FA401B41F28831884201D9032017
:102B4000A3E54148006800F400700028F0D1B9F115
:102B5000010F07D13C481038006820F080503A49F6
:102B60001039086000BF606AA8B30C2E52D0606AAA
:102B7000022839D1002035490866FFF75BFA05467F
:102B800006E0FFF757FA401B022801D903207CE535
:102B90002D483438006800F000700028F1D1D4E9E5
:102BA0000A010843216B084327492C39096821F49D
:102BB0007D01084324492C39086001202349086617
:102BC000FFF738FA054607E0FFF734FA401B022802
:102BD00002D9032059E535E01B483438006800F07D
:102BE00000700028F0D02DE0002018490866FFF79B
:102BF00021FA054606E0FFF71DFA401B022801D91D
:102C0000032042E510483438006800F000700028C6
:102C1000F1D117E0606A012800D136E50A482C3866
:102C2000076807F48031A06A814209D107F4701166
:102C3000E06A814204D107F44001206B814201D057
:102C4000012022E5002020E5343802400000474200
:102C50000246106800F1500303EB810318687047C7
:102C600010B5046804F1500303EB81031A6010BD32
:102C700070B505460B461646286840680E4900EABE
:102C80000104200CD870C4F30420587004F03F00F5
:102C90009870C4F3423018705EB9D87800F0BAFE6C
:102CA000D870587800F0B6FE5870987800F0B2FEF0
:102CB0009870002070BD00003FFFFF0070B5044613
:102CC0000B4616462068806A80B25860206800690A
:102CD000C0F30E009860206800680F4900EA010503
:102CE000C5F305401870C5F30620587005F07F0045
:102CF000987005F48000000CD8705EB9187800F068
:102D000089FE1870587800F085FE5870987800F0A9
:102D100081FE9870002070BD7F7F7F0010B5044653
:102D20000CB9012010BD607F20B90020207720461B
:102D300000F060F80220607700BFCA202168486276
:102D400053202168486200BF204600F07BFE40B15E
:102D500000BFFF202168486200BF04206077012087
:102D6000E0E720688068224908402168886021697E
:102D700060680843616908432168896808432168DD
:102D800088602168E068086120680169208941EA5B
:102D90000040216808612068C06820F08000216838
:102DA000C8602068806800F0200060B9204600F00C
:102DB0003DF940B100BFFF202168486200BF0420F8
:102DC00060770120AEE72068006C20F48020216845
:102DD00008642068006CA16908432168086400BF8A
:102DE000FF202168486200BF01206077002099E73A
:102DF000BFFF8FFF034A0168914202D10121024ABD
:102E00001160704700280040D80647422DE9F04184
:102E100004460D46164600BF207F012802D102203D
:102E2000BDE8F0810120207700BF022060774EB915
:102E3000687800F01000102804D1687800F0EF00E6
:102E40000A30687096B9E87800F0EEFD4FEA004865
:102E5000687800F0E9FD48EA0028A87800F0E4FD71
:102E600048EA0008287848EA403709E0E878000492
:102E7000697840EA0120A9780843297840EA413777
:102E800000BFCA202168486253202168486200BF01
:102E9000204600F0D7FD60B100BFFF2021684862E6
:102EA00000BF0420607700BF0020207700BF012012
:102EB000B6E714483840216848602068C06820F0B0
:102EC00080002168C860204600F0B0F860B100BF03
:102ED000FF202168486200BF0420607700BF002007
:102EE000207700BF01209BE700BFFF2021684862D8
:102EF00000BF0120607700BF0020207700BF00BF27
:102F00008EE700003FFFFF002DE9F04104460D462B
:102F1000174600BF207F012802D10220BDE8F081C2
:102F20000120207700BF02206077DFB92068806829
:102F300000F0400000B102E00020E87000BF2878F7
:102F400000F072FD4FEA0048687800F06DFD48EA35
:102F50000028A87800F068FD48EA0008E87848EA08
:102F6000004612E02068806800F0400000B102E0F6
:102F70000020E87000BF28780004697840EA01204A
:102F8000A9780843E97840EA014600BFCA202168D1
:102F9000486253202168486200BF204600F052FD7D
:102FA00060B100BFFF202168486200BF0420607745
:102FB00000BF0020207700BF0120AFE71A48304053
:102FC000216808602068806820F48020216888607B
:102FD000D5E90301084321688968084321688860AE
:102FE0002068C06820F080002168C860204600F09A
:102FF0001DF860B100BFFF202168486200BF0420B7
:10300000607700BF0020207700BF012086E700BF67
:10301000FF202168486200BF0120607700BF0020C8
:10302000207700BF00BF79E77F7F7F0070B504463F
:103030002068806800F02000B8B92068C06820F0DF
:10304000A0002168C860FEF7F5FF054607E0FEF71F
:10305000F1FF401BB0F57A7F01D9032070BD2068D5
:10306000C06800F020000028F1D00020F6E770B51D
:1030700004462546681EB0F1807F01D301200FE091
:10308000681E4FF0E02148610F214FF0FF3001F042
:10309000F5FB00204FF0E021886107200861002047
:1030A00070BD7047704700002DE9F84F0446206856
:1030B00005682068C668206847694FF00009CA465D
:1030C00005F00F09B9F1000F0AD105F0200038B161
:1030D00006F0200020B1204601F001F9BDE8F88F8C
:1030E000B9F1000F72D007F0010018B906F4907022
:1030F00000286BD005F0010030B106F4807018B1E3
:10310000206C40F00100206405F0040030B107F0AD
:10311000010018B1206C40F00200206405F00200AC
:1031200030B107F0010018B1206C40F004002064B9
:1031300005F0080048B106F0200010B907F00100C2
:1031400018B1206C40F008002064206C70B305F0CA
:10315000200028B106F0200010B1204601F0BFF891
:1031600020684069C0F3801A206C00F0080010B994
:10317000BAF1000F23D0204601F086F8206840699C
:1031800000F04000402816D12068406920F040003F
:1031900021684861A06B50B15548A16B4863A06B92
:1031A000FEF783FD10B1A06B416B88470CE0204611
:1031B000FFF778FF08E02046FFF774FF04E02046A1
:1031C000FFF770FF0020206488E7FFE7206B0128ED
:1031D00078D105F01000002874D006F01000002807
:1031E00070D000BF00200090206800680090206828
:1031F0004068009000BF00BF2068406900F04000B8
:10320000402838D1A06B006840681FFA80F8B8F1F8
:10321000000F2FD0A08D40452CDDA4F82E80A06B90
:10322000806920281FD02068C06820F48070216841
:10323000C8602068406920F001002168486120686A
:10324000406920F0400021684861202084F83E0059
:10325000002020632068C06820F010002168C8604A
:10326000A06BFEF7F5FCA08DE28D801A81B220469E
:10327000FFF717FF32E7A08DE18D401A1FFA80F8A3
:10328000E08DE8B1B8F1000F1AD02068C06820F4D2
:1032900090702168C8602068406920F001002168B2
:1032A0004861202084F83E00002020632068C06828
:1032B00020F010002168C86041462046FFF7F1FE6B
:1032C0000CE7FFE705F0800030B106F0800018B190
:1032D000204601F072F901E705F0400030B106F038
:1032E000400018B1204600F0EAFFF7E600BFF5E61F
:1032F0007542000810B504460CB9012010BDA06944
:1033000000B100E000BF94F83D0028B9002084F827
:103310003C00204600F028F8242084F83D00206876
:10332000C06820F400502168C860204601F04AF8C7
:103330002068006920F49040216808612068406995
:1033400020F02A00216848612068C06840F40050DD
:103350002168C86000202064202084F83D0084F8A3
:103360003E000020CAE7000010B586B004461421D4
:1033700001A8FDF799F83A492068884232D100BF88
:103380003848006840F480403649086008460068C4
:1033900000F48040009000BF00BF00BF081F00681D
:1033A00040F00200091F08600846006800F00200B3
:1033B000009000BF00BFC0200190022002900020BA
:1033C0000390032004900720059001A92648FEF7EA
:1033D00049FD002211462520FEF7B8FE2520FEF704
:1033E000A5FE3AE021492068884236D100BF1D4839
:1033F000001D006840F480201A49091D0860084635
:10340000006800F48020009000BF00BF00BF154896
:10341000001F006840F004001249091F08600846B8
:10342000006800F00400009000BF00BF4FF440604F
:1034300001900220029000200390032004900720B6
:10344000059001A90A48FEF70DFD0022114627202C
:10345000FEF77CFE2720FEF769FE06B010BD0000D7
:10346000003801402038024000040240004800407B
:103470000008024070B504460D46164694F83E001A
:10348000202816D105B10EB9012070BD00BF94F8F7
:103490003C00012801D10220F7E7012084F83C001C
:1034A00000BF0020206332462946204601F062F822
:1034B000EBE70220E9E7000010B504462449206844
:1034C000096888421ED12348C08841F28831884269
:1034D00012DA20480179C288C088401C1D4BD88070
:1034E00003F1080081540838C08841F288318842CD
:1034F00002D100201946C88001221649091D14482E
:10350000FFF7B8FF14492068096888421ED11348A4
:10351000C08841F28831884212DA10480179C288A5
:10352000C088401C0D4BD88003F108008154083836
:10353000C08841F28831884202D100201946C880F3
:1035400001220649091D0448FFF794FF10BD000041
:1035500040280020B0130020FC270020200000207D
:103560002DE9F84F04460E46174699464FF0000ADB
:1035700094F83D0020285AD106B117B90120BDE8C2
:10358000F88F00BF94F83C00012801D10220F6E733
:10359000012084F83C0000BF00202064212084F832
:1035A0003D00FEF747FD8246A784E784A068B0F59A
:1035B000805F04D1206910B90025B04602E035468D
:1035C0004FF0000800BF002084F83C0000BF1BE063
:1035D0005346002280212046CDF8009001F01DF8CE
:1035E00008B10320CBE745B9B8F80000C0F30800E4
:1035F0002168486008F1020803E0287821684860E3
:103600006D1CE08C401EE084E08C0028E0D1534625
:10361000002240212046CDF8009000F0FEFF08B1C6
:103620000320ACE7202084F83D000020A7E702201B
:10363000A5E7704700BFFEE700B587B0142102A8D8
:10364000FCF732FF00BF2B48006840F00400294916
:1036500008600846006800F00400019000BF00BF49
:1036600000BF0846006840F0020008600846006895
:1036700000F00200019000BF00BF00BF08460068D4
:1036800040F0010008600846006800F00100019069
:1036900000BF00BF002222211748FEF7C5FC002210
:1036A00042F201011548FEF7BFFC02200290012002
:1036B0000390022004900020059002A90E48FEF716
:1036C000D1FB20200290012003900020049005905F
:1036D00002A90948FEF7C6FB42F201000290012050
:1036E000039000200490059002A90448FEF7BAFB5D
:1036F00007B000BD1C380240000802400004024030
:1037000000B587B0142102A8FCF7CEFE002001907E
:10371000224823490860002048607F2120488160BA
:10372000FF21C1600021016141618161FFF7F6FA6B
:1037300008B1FDF761FF01211948FFF789FA42F24C
:103740000861884228D100208DF808008DF8090012
:103750008DF80A0005900690012202A91048FFF793
:10376000D3FB08B1FDF748FF01208DF804008DF868
:1037700005008DF8060000208DF80700012201A940
:103780000748FFF743FB08B1FDF736FF42F2086236
:1037900001210348FFF764FA07B000BD002800408C
:1037A000DC27002010B50B480B4908604FF4E130CE
:1037B0004860002108488160C16001610C214161BD
:1037C00000218161C161FFF795FD08B1FDF714FF8C
:1037D00010BD000000380140FC27002010B50B4848
:1037E0000B4908604FF4E1304860002108488160CF
:1037F000C16001610C21416100218161C161FFF75C
:1038000079FD08B1FDF7F8FE10BD0000004800404A
:103810004028002000BFFEE710B510480078C0B96E
:103820000F491048FDF7D6F90C4908700846007892
:10383000012808D10C48407810B901200B490870C4
:1038400001200B490870002202210A48FEF7ECFB18
:1038500003E0FDF733F900F015F910BD4D27002006
:10386000B013002020000020442700204B27002018
:103870004E2700200008024000BFFEE7F8B50446CE
:103880000D46164605B116B900202E4908702D4880
:10389000007810B900202C4908702B4800780028C7
:1038A00045D12078012839D128480078012802D054
:1038B0002648007880BB26480068401C24490860E0
:1038C0000846202223490368204600F013FF2248BF
:1038D00000682249096888420BD11F48006800909F
:1038E0001F48204A1B4903681B480068FDF7DFFF9B
:1038F0000AE019480068009019481A4A15490368F7
:1039000015480068FDF77CFFFDF7D8FD01200E4942
:10391000087000200D4908700020207010480068D1
:103920000D490968884202D0012007490870A07932
:103930001C2805DDA079202802DA0120034908703F
:10394000F8BD000008000020090000200A00002047
:10395000000000209C2700201000002018000020FC
:103960001400002000F403087047000018B5034657
:1039700000222548006800F0F00050BB22481C30AF
:10398000006800F0805020B12048006800F4C05169
:1039900018E000BF1C481C30006840F080501A4CF2
:1039A0001C3420602046006800F08050009000BF6A
:1039B00000BF1648006800F4C0512046006820F09F
:1039C00080502060B1F5C05F03D1B3F5404F00D106
:1039D000012200BF012A05D10D48006840F0040013
:1039E0000B4C20600A48006820F001001043084C8E
:1039F000206000BF2046006800F00100904201D026
:103A0000012018BD0020FCE708380240007000408B
:103A1000003C02400146080900EB8000420001F032
:103A20000F001044C0B2704702460023114603E065
:103A30005B1CA1F10A00C1B20A29F9D2180741EAB8
:103A40001060704770B504462068C06800F0400000
:103A5000A8B94FF0FF302168C860FEF7EBFA0546C1
:103A600007E0FEF7E7FA401BB0F57A7F01D90320A3
:103A700070BD2068C06800F040000028F1D0002030
:103A8000F6E770471CB51C480078012833D11B4865
:103A9000007801282FD1012202211948FEF7C4FA2B
:103AA00018480078012808D11748164B174A1849BA
:103AB00000901848FDF7A8FF10E0144A1449154873
:103AC00000F02AF80446012C02D100200A490870AF
:103AD000601C10B900200949087000BF0A4800782E
:103AE000012808D1094903C9CDE9000100F01EFAF7
:103AF0000020054908701CBD4E2700204D270020DE
:103B0000000802404B2700204C27002044270020BB
:103B1000B013002020000020F0B59FB004460D46F1
:103B20001646FDF73DFD012802D1801E1FB0F0BDF5
:103B3000EE48007801287CD1ED480078002879D142
:103B40003078012803D10020E8490870EEE7E94801
:103B50000068E949096888426CD0E849E54800688E
:103B6000FDF769FD0027002006E0E449095C09B97A
:103B7000012703E0411CC8B22028F6DB00BFDF4864
:103B8000C07F0A2877D1002F75D126220EA8296878
:103B9000FCF758FC2868C08CADF85E002868816A84
:103BA0001891808DADF864002868C08DADF866006E
:103BB0002868006B1A90286800F1340109221BA8BC
:103BC000FCF740FC286890F83D008DF875002868E7
:103BD00090F83E008DF876002868006C1E90C8A012
:103BE000342212A90D906846FCF72CFC0EA80FC8D1
:103BF00000F026FB26220EA82168FCF723FC206893
:103C0000C08CADF85E002068816A1891808DADF897
:103C100064002068C08DADF866002068006B1A90C3
:103C2000206800F1340109221BA8FCF70BFC206876
:103C300001E058E122E090F83D008DF87500206821
:103C400090F83E008DF876002068006C1E90ACA0C5
:103C5000342212A90D906846FCF7F4FB0EA80FC899
:103C600000F0EEFA0120A2490870FEF7E3F9A84936
:103C7000086002E0FFE7FDF7E5FB00BF9C48007825
:103C800001287DD12846FCF739FE0128F9D1A1A1F0
:103C900005F10800FCF7A5FB002872D026220EA82B
:103CA0002168FCF7CFFB2068C08CADF85E0020686F
:103CB000816A1891808DADF864002068C08DADF8E0
:103CC00066002068006B1A90206800F13401092218
:103CD0001BA8FCF7B7FB206890F83D008DF8750035
:103CE000206890F83E008DF876002068006C1E90E9
:103CF00005F10800342212A90D906846FCF7A2FBDA
:103D00000EA80FC800F09CFA26220EA82968FCF71E
:103D100099FB2868C08CADF85E002868816A18910C
:103D2000808DADF864002868C08DADF86600286805
:103D3000006B1A90286800F1340109221BA8FCF7D7
:103D400081FB286890F83D008DF87500286890F890
:103D50003E008DF876002868006C1E90674834227B
:103D600012A90D906846FCF76DFB0EA80FC800F075
:103D700067FA26220EA82168FCF764FB206801E0A0
:103D80003FE035E0C08CADF85E002068816A189194
:103D9000808DADF864002068C08DADF866002068A5
:103DA000006B1A90206800F1340109221BA8FCF76F
:103DB00049FB206890F83D008DF87500206890F868
:103DC0003E008DF876002068006C1E904B4834222F
:103DD00012A90D906846FCF735FB0EA80FC800F03D
:103DE0002FFA022042490870FEF724F9484908607A
:103DF00029462046FCF792FE012802D12846FDF70D
:103E0000C0FB3B48007802286DD12846FCF776FDC0
:103E1000012868D140A105F10800FCF7E2FAE8B3F7
:103E200026220EA82168FCF70DFB2068C08CADF897
:103E30005E002068816A1891808DADF8640020686A
:103E4000C08DADF866002068006B1A90206800F104
:103E5000340109221BA8FCF7F5FA206890F83D0010
:103E60008DF87500206890F83E008DF87600206887
:103E7000006C1E9005F10800342212A90D906846CE
:103E8000FCF7E0FA0EA80FC800F0DAF92946204640
:103E9000FCF744FE012804D1284600E00FE0FDF7BE
:103EA00070FBFDF7CFFA0020114908700F49087028
:103EB000114802680F4801681948FDF758FD19A11B
:103EC00005F10800FCF78DFA68B100200849087078
:103ED00029462046FCF722FE012802D12846FDF79C
:103EE00050FB012022E6002020E60000090000200F
:103EF000080000201400002010000020BC27002033
:103F000041542B43495053454E443D312C333200EC
:103F1000040000203E000000535543434553530026
:103F200000F403084641494C0000000013B59DF819
:103F300004000D4908709DF8050048709DF80600C2
:103F4000887000220948FEF7DFFF9DF8010008494C
:103F5000C8709DF8020048709DF803008870002228
:103F60000248FEF753FF1CBD84280020DC270020F8
:103F7000402700202DE9F04781460E4692461D4617
:103F8000DDE908870A9C022C04D800223146154836
:103F9000FEF74AF8022C10D9032C0ED8002229462D
:103FA0001048FEF741F8002239460F48FEF73CF86A
:103FB000012231460B48FEF737F8032C06D9062CB0
:103FC00004D8012229460748FEF72EF8062C06D908
:103FD000152C04D8002229460248FEF725F8BDE832
:103FE000F08700000004024000080240FEB50646CB
:103FF0000C460025FEF71EF810490968401A45F6E0
:10400000D811884215D8FEF715F80C490968401AEE
:104010004FF47A71B0FBF1F5202009490123094AD8
:10402000CDE90105009101021046FFF7A3FF002032
:10403000FEBD2046FDF7A5FA0120F9E77C27002008
:10404000000802400004024010B5FDF7F9FF10BD62
:1040500000B595B0342108A8FCF726FA142103A86E
:10406000FCF722FA0020019002901B48006820F41F
:10407000C05040F4006018490860062008900120F4
:104080000A900B9010200C900220119000211291A8
:1040900013914105149108A8FEF7F2FA08B1FDF753
:1040A000ABFA0F20039003200490002005900690A7
:1040B0000790012103A8FEF75DF908B1FDF79CFA0E
:1040C000012001900004029001A8FEF791F808B1C8
:1040D000FDF792FA15B000BD007000407047000077
:1040E00010B5002221492248FEF7E8FD00222149AF
:1040F0001F48FEF7BDFD1F48C07800282BD01B4885
:1041000080781D498979884225D001201A49087094
:1041100016488078887115484078487113480078AF
:10412000087114488078C870124840788870114827
:10413000C07848700846807908B9012008700E4898
:10414000007940B90C48407928B90B48807910B9FA
:1041500001200A4908700848407830B108480278C0
:10416000084801780448FFF789FB10BD8428002027
:10417000DC27002040270020442700204B27002078
:104180004E2700204D2700207CB504460D462348CD
:10419000007800BB4FF4FA70214922A322A2CDE996
:1041A000001029462046FCF7A5FA012807D1002077
:1041B0001B49087019480078401C184908701848B5
:1041C00000780A2806DD0020154908701349087098
:1041D000401E7CBD1FE04FF4FA70114911A315A2D7
:1041E000CDE9001029462046FCF784FA012806D1C3
:1041F00000200B490870094908700120E9E70848C8
:1042000000780A2806DD0020054908700349087077
:10421000401EDEE700BF00BF0020DAE76D27002068
:10422000732700204F4B000041542B4346554E3D11
:104230003400000041542B4346554E3D31000000F0
:104240000FB470B5159C2046FCF7DDF885B24FF42D
:104250007A732A46214604A8FFF782F94FF47A734D
:10426000022203A104A8FFF77BF970BC5DF814FBE0
:104270000D0A000070B505466C6A0020E085E084F8
:104280002046FEF70FFF70BD0168C96821F49071E8
:104290000268D1600168496921F001010268516139
:1042A000016B012905D10168C96821F0100102687C
:1042B000D160202180F83E1000210163704710B5C5
:1042C00004462068C06820F040002168C8602020B3
:1042D00084F83D002046FFF7ACF9002010BDF8B58A
:1042E000044694F83E00222869D1A068B0F5805FAA
:1042F0000CD1206950B90025A66A20684068C0F337
:1043000008003080A06A801CA06215E0A56A002623
:10431000A068B0F5805F03D0A06828B9206918B9FB
:1043200020684068287004E02068406800F07F0042
:104330002870A06A401CA062E08D401E80B2E0851B
:10434000A8BB2068C06820F020002168C8602068F1
:10435000C06820F480702168C8602068406920F03F
:10436000010021684861202084F83E00206B01286C
:104370001ED1002020632068C06820F01000216852
:10438000C8602068006800F0100010280AD100BF43
:10439000002000902068006800902068406800902D
:1043A00000BF00BFA18D2046FEF77BFE03E004E0C6
:1043B0002046FFF781F80020F8BD0020FCE702202E
:1043C000FAE7000070B504462168096921F44051FC
:1043D000E2681143226811612269A1681143626990
:1043E0001143E26941EA02052168C96849F20C6299
:1043F000914329432268D1602168496921F44071C1
:10440000A269114322685161594A2168914202D13F
:10441000FEF7D6F801E0FEF7C3F8E169B1F5004F09
:1044200053D100EBC00101EB001162685200B1FBF7
:10443000F2F16422B1FBF2F10A0100EBC00101EBE1
:10444000001163685B00B1FBF3F100EBC00303EB09
:10445000001366687600B3FBF6F36426B3FBF6F34D
:1044600003EBC30606EB0313A1EB8301322303EB3B
:10447000C1016423B1FBF3F101F0F80102EB410249
:1044800000EBC00101EB001163685B00B1FBF3F1CD
:1044900000EBC00303EB001366687600B3FBF6F392
:1044A0006426B3FBF6F303EBC30606EB0313A1EBA1
:1044B0008301322303EBC1016423B1FBF3F101F06B
:1044C000070111442268916051E000EBC00101EB4B
:1044D000001162689200B1FBF2F100EBC00202EB46
:1044E000001263689B00B2FBF3F26423B2FBF3F2A9
:1044F00002EBC20303EB0212A1EB8201322202EBB8
:1045000001116422B1FBF2F101F0F00100EBC002F5
:1045100002EB001263689B00B2FBF3F26423B2FB70
:10452000F3F201EB021200EBC00101EB0011636832
:104530009B00B1FBF3F100EBC00303EB00136668D3
:10454000B600B3FBF6F36426B3FBF6F303EBC30646
:1045500006EB0313A1EB8301322303EB0111642368
:10456000B1FBF3F101F00F0111442268916070BDBD
:104570000038014010B5034699629A85DA8500201B
:104580001864222083F83E0000BF002083F83C001E
:1045900000BF1868C06840F480701C68E06018684C
:1045A000406940F001001C6860611868C06840F014
:1045B00020001C68E060002010BD014691F83D001D
:1045C000212828D18868B0F5805F0BD1086948B9E7
:1045D0000A6A1088C0F308000B685860086A801CDB
:1045E000086205E00B6A581C086218780B6858606E
:1045F000C88C401E80B2C88458B90868C06820F0D2
:1046000080000B68D8600868C06840F040000B6804
:10461000D860002070470220FCE72DE9F0410446F5
:104620000D4617469846069E21E0701CF8B12EB143
:10463000FDF700FDA0EB0800B04218D92068C06863
:1046400020F4D0702168C8602068406920F0010023
:1046500021684861202084F83D0084F83E0000BFB6
:10466000002084F83C0000BF0320BDE8F0812068F2
:1046700000682840A84201D1012000E00020B84293
:10468000D3D00020F1E7000010B50248FEF70CFD82
:1046900010BD0000FC27002010B50248FEF704FD05
:1046A00010BD000040280020F0B5044601230A2573
:1046B00004E005EB850675005E1CB3B2B1FBF5F6B0
:1046C000002EF6D116881E44701E0AE00A26B1FBA1
:1046D000F6F706FB1716303626540A26B1FBF6F11C
:1046E000401E16888642F1DD16881E441680F0BDF5
:1046F00000BFFEE7F8B505460C4616461F460020EB
:10470000009068780A2808DA3020BDF8001060545C
:10471000BDF80000401C80B2009069786A462046CF
:10472000FFF7C2FF2F20BDF800106054BDF8000055
:10473000401C80B20090A8780A2808DA3020BDF822
:1047400000106054BDF80000401C80B20090A978B1
:104750006A462046FFF7A8FF2F20BDF800106054DE
:10476000BDF80000401C80B20090E8780A2808DA02
:104770003020BDF800106054BDF80000401C80B22D
:104780000090E9786A462046FFF78EFF2C20BDF89E
:1047900000106054BDF80000401C80B200902879E1
:1047A0000A2808DA3020BDF800106054BDF8000077
:1047B000401C80B2009029796A462046FFF774FFBA
:1047C0003A20BDF800106054BDF80000401C80B2D3
:1047D000009068790A2808DA3020BDF8001060548B
:1047E000BDF80000401C80B2009069796A462046FE
:1047F000FFF75AFF3A20BDF800106054BDF80000E2
:10480000401C80B20090A8790A2808DA3020BDF850
:1048100000106054BDF80000401C80B20090A979DF
:104820006A462046FFF740FF2C20BDF80010605478
:10483000BDF80000401C80B200906A463946204610
:10484000FFF732FF08E02020BDF800106054BDF8EB
:104850000000401C80B20090701EBDF8001088421D
:10486000F1D80A20BDF800106054F8BD0248006875
:10487000C0F30220704700000CED00E010B50028E6
:1048800004DB0A07130E054A135406E00A07140E48
:10489000034A00F00F031B1FD45410BD00E400E0D6
:1048A00018ED00E0FDF7D8FBFFF7D2FBFEF7C4FEE2
:1048B000FEF778FFFEF792FFFEF722FF1449012270
:1048C0000868091DFEF7D6FD124901220868104943
:1048D000091DFEF7CFFDFDF769F818E0FDF7AAFB0B
:1048E0000D490860FEF798FFFFF7FAFBFDF7A2FB02
:1048F00009490968401A08490860084600680749DC
:104900000968884203D90448006804490860E5E75B
:1049100020000020B0130020502700205427002042
:10492000030406080C1018203000000000000000EE
:104930000001020304060708090000000001020349
:104940000400000064490008000000209C270000CB
:1049500060010008D04900089C270020740700006F
:10496000BC010008B12543544C2BAC900108041342
:10497000FC2702FF2001FF01FF01FF01FF01FF01F2
:10498000FF01FF01FF01FF01FF01FF01FF01FF0127
:10499000FF01FF01FF01FF01FF019F13402802FFFC
:1049A0002001FF01FF01FF01FF01FF01FF01FF01E6
:1049B000FF01FF01FF01FF01FF01FF01FF01FF01F7
:1049C000FF01FF01FF01BB32103201043568FF1FF8
:0400000508000125C9
:00000001FF
